:030013000203895C
:10038900C0E0C0F0C083C082C0D075D010128030E8
:0E0399001211ECD0D0D082D083D0F0D0E03260
:0300000002018C6E
:09018C0075A04075818F0201D0BD
:1003A700008844CC22AA66EE119955DD33BB77FF4E
:0403B700362634248E
:0C00030001200046094100000000000040
:10001E00D2BA53B51F43B58053B57FC2857F011247
:10002E0080B17F007E007D007C001280BA7F0112BD
:10003E0080A2759C27439C40D2ABD2AF7548097500
:10004E0049009009121203054D1EABA190090A1228
:10005E0003054D1EABC09009167403F0A37401F096
:10006E0090092D744DF090092F7401F0A3741DF0BA
:10007E0090092E7401F0900925120305000000006E
:10008E009009291203053DB22D0E7E097F2512110E
:10009E00E91280F97F641280F08E408F417F031247
:1000AE00803C128036EF60FA3081761202157F00A6
:1000BE007E007D007C001280BA12028D1280B4E4A4
:1000CE007B28FAF9F8D312879550F112028D12801F
:1000DE00B4E47BA0FAF9F8D312879550F112028D91
:1000EE001280B4E47B407A01F9F8D312879550F070
:1000FE0012028DE5DA5407D3940140107FE07E2E74
:10010E007D007C011280E7C2AF1280C01280B4E481
:10011E007BB87A0BF9F8D3128795408C30818980A1
:10012E00EB7F007E007D007C001280BA1280B4E46A
:10013E007BD07A07F9F8D312879550F030810302FD
:10014E0000B61280B4E47B887A13F9F8D31287953F
:10015E0050F02081030200B6E5DA5407D394014033
:10016E0008E4F59CC2AF1280C01280B4E47B507AD2
:0E017E0046F9F8D312879550030200B680EBC5
:10028D00900931E0FCA3E0FDA3E0FEA3E0FF1280A6
:10029D00F6128036EF60FA12802A128090900917BC
:1002AD00E0B40108900916E0FF1280FC1280D59091
:0E02BD000940E0FDAF49AE481280DB0211E3BC
:03001B00020336A7
:10033600C0E0C0F0C083C082C0D075D008539C7F97
:100346007F051280B70547E54720E003128018D0E5
:0A035600D0D082D083D0F0D0E03286
:10036000C2ABE490093FF0128015EF601912800CC7
:10037000EF90093FF0E5206007E0F520E4F080060B
:0903800090093FE0F520D2AB2208
:10021500E4FDFCFF1280E1900917E07005900912DA
:10022500800390090AE0FCA3E0FDA3E0FEA3E0FF44
:1002350090093112873A900940740AF090090074C8
:100245000FF0A374FFF0E4A3F0A3F0A374FFF0A3F1
:10025500F0E4A3F0A3F0A374FFF0A374F0F0900909
:100265001BE4F0A374A7F09009187405F0E4A3F05B
:10027500A37407F0E490091DF0A37405F0A314F02E
:080285007E097F17128084221C
:1002CB00EF60027FFFE4FE74002EF582E43409F543
:1002DB0083E0FD54F0C4540F9003A793540FFCED2F
:1002EB00540F9354F0FD4C6FFB74002EF582E434E5
:0902FB0009F583EBF00EBE02CE02
:0103040022D6
:1001950002001EE493A3F8E493A34003F68001F262
:1001A50008DFF48029E493A3F85407240CC8C3336B
:1001B500C4540F4420C8834004F456800146F6DF3A
:1001C500E4800B0102040810204080900003E47EC7
:1001D500019360BCA3FF543F30E509541FFEE4932F
:1001E500A360010ECF54C025E060A840B8E493A3F6
:1001F500FAE493A3F8E493A3C8C582C8CAC583CA21
:10020500F0A3C8C582C8CAC583CADFE9DEE780BED8
:01000F0000F0
:10030500A8828583F0D083D08212031C12031C12AD
:10031500031C12031CE473E493A3C583C5F0C583D2
:10032500C8C582C8F0A3C583C5F0C583C8C582C842
:0103350022A5
:00000001FF
